:020000040800F2
:10000000700F0020491000083B2300081D10000855
:100010001D1000081D1000081D1000080000000041
:10002000000000000000000000000000250D000896
:100030001D10000800000000DD0C0008AD140008D1
:10004000A10D0008A10D0008A10D0008A10D0008D8
:10005000A10D0008A10D0008A10D0008A10D0008C8
:10006000A10D0008A10D0008A10D0008A10D0008B8
:10007000A10D0008A10D0008A10D0008A10D0008A8
:10008000A10D0008A10D0008A10D0008A10D000898
:10009000A10D0008A10D0008A10D0008A10D000888
:1000A000A10D0008A10D0008A10D0008A10D000878
:1000B000A10D0008A10D0008A10D0008A10D000868
:1000C000A10D0008A10D0008A10D0008A10D000858
:1000D000A10D0008A10D0008A10D0008A10D000848
:1000E000A10D0008A10D0008A10D0008A10D000838
:1000F000A10D0008A10D0008A10D0008A10D000828
:10010000A10D0008A10D0008A10D0008A10D000817
:10011000A10D0008A10D0008A10D0008A10D000807
:10012000A10D0008A10D0008A10D0008A10D0008F7
:1001300053B94AB9002908BF00281CBF4FF0FF314E
:100140004FF0FF3000F00CB8ADF1080C6DE904CEB3
:1001500000F008F8DDF804E0DDE9022304B07047A0
:10016000704700BF2DE9F04786468C460846154685
:1001700074461946089E002B40F0C2808542B2FAB0
:1001800082F245D94AB1C2F1200300FA02FC2EFAEC
:1001900003F3954043EA0C0C94404FEA154EBCFB28
:1001A000FEF8A8B20EFB18CC08FB00F9230C43EABA
:1001B0000C43994528D9EB1808F1FF3704D299452B
:1001C00002D9A8F102072B44A3EB0903B3FBFEFC01
:1001D0000EFB1C330CFB00F0A4B244EA0344A04223
:1001E00014D92C190CF1FF3304D2A04202D9ACF17E
:1001F00002032C44241A43EA07401EB10023D440D2
:1002000034607360BDE8F0874746DDE76346F1E799
:1002100092BB0121431B4FEA154EB3FBFEFCAFB26C
:100220000EFB1C330CFB07F8200C40EA03439845F7
:1002300062D9EB180CF1FF3004D2984502D9ACF129
:1002400002002B44A3EB0803B3FBFEFC0EFB1C33A4
:100250000CFB07F7A4B244EA0344A7424ED92C1979
:100260000CF1FF3304D2A74202D9ACF102032C44B3
:10027000E41B43EA0040C0E7C2F12003954020FAA6
:1002800003F12EFA03F34FEA154EB1FBFEFC90404A
:100290000343AFB20EFB1C100CFB07F8190C41EA2C
:1002A0000041884504FA02F422D969180CF1FF30A4
:1002B00004D2884502D9ACF102002944A1EB08011F
:1002C000B1FBFEFC0EFB1C110CFB07F79BB243EAD3
:1002D00001439F420ED9EB180CF1FF3104D29F422B
:1002E00002D9ACF102012B44DB1B41EA004192E749
:1002F0006046E3E76146F7E76046A3E76346B7E792
:10030000834206D916B9002108467BE7C6E900E01A
:10031000F9E7B3FA83F78FB9834201D3724508D85E
:10032000BEEB020460EB030301209C461EB90021D2
:1003300068E73846FAE7C6E9004CF8E7C7F1200C51
:10034000BB4022FA0CF41C434FEA144920FA0CF388
:10035000B3FBF9F8B8402EFA0CF101430EFA07F599
:1003600009FB18301FFA84FE08FB0EFA0B0C43EA57
:1003700000439A4502FA07F240D9E31808F1FF302A
:1003800004D29A4502D9A8F102002344A3EB0A0340
:10039000B3FBF9F809FB183308FB0EFE89B241EAFA
:1003A00003418E452CD9611808F1FF3304D28E45E4
:1003B00002D9A8F10203214443EA0040A0FB0298BD
:1003C000A1EB0E014145CE46434602D306D14D4531
:1003D00004D2B9EB020E68EB04030138002EA6D05C
:1003E000B5EB0E0261EB030101FA0CFC22FA07F3F4
:1003F0004CEA0303F940C6E9003198E74046C5E7F7
:100400004346D9E710B5144C204602F0A2F900B3D8
:100410002269A1681368204643F4005313600B68F7
:100420000E4A0D219847002813DB41F2883001F075
:10043000FCFE01220D21204601F0E7FEC82001F05C
:10044000F4FE204600220D2101F0DFFE4FF47A7009
:10045000EDE7002010BD00BF702900080100060074
:10046000014B1B68184700BF0000002007B50B4672
:10047000002102460091034800F006F803B05DF841
:1004800004FB00BF610400082DE9F04F81468B4654
:1004900017461C46002595B0387808B9284657E31A
:1004A0007B1C2528039306D05946C8470028C0F274
:1004B0004F830135FBE1182200210EA801F056FF01
:1004C0007B78252B7DD0002398469E469C461E4671
:1004D000781C014610F8012B2B2A00F0A18000F2B5
:1004E0009880202A00F09F80232A00F09F802BB163
:1004F0009DF8403043F040038DF84030B8F1000FD4
:1005000005D09DF8403043F020038DF84030BEF117
:10051000000F05D09DF8403043F010038DF84030B7
:10052000BCF1000F05D09DF8403043F008038DF872
:1005300040302EB19DF8403043F004038DF8403038
:100540009DF8403003F04400442803D16FF3861334
:100550008DF840309DF840302A2A43F080038DF812
:1005600040307FD19DF841204B1C42F001028DF8B4
:1005700041201A782E2A0CBF012100219DF841202C
:1005800061F341028DF8412078D15A782A2A6ED041
:1005900000224FF00A0C0133194611F8010BA0F1AB
:1005A0003006092E40F295809DF840101292C1F35A
:1005B000400040EAD2700A4660F341028DF84020C4
:1005C0005CE0BA1C03928DF843309DF84130DA07A5
:1005D00040F12E8154F8048BB8F1000F07DA9DF832
:1005E0004020C8F1000842F004028DF840205E0768
:1005F00040F1278154F804ABBAF1000F80F2268154
:100600009DF841306FF341038DF841304FF0FF3AD0
:100610001CE12D2A0DD0302A7FF469AF012358E761
:100620004FF0010C55E74FF0010E52E74FF0010873
:100630004FE701264DE703460EFB0262303A1846AB
:1006400010F8016BA6F1300CBCF1090FF3D99942F7
:100650008FD09DF840101192D20F62F341018DF8B6
:10066000401086E70B4600224FF00A0EE7E79DF8A0
:100670004120023342F004028DF841201A786C2A9E
:1006800047D02BD8682A31D06A2A4BD04C2A51D077
:100690001A4612F8013B782B03928DF843309DF8EF
:1006A000412000F2BE806D2B51D8692B00F2B98039
:1006B000572B67D8412B03D0453B022B00F2B1806A
:1006C00004229DF8423062F302038DF84230012388
:1006D00073E00CFB02020B46303A5DE7742A25D02A
:1006E0007A2AD5D106219DF841200CE05A78682A53
:1006F0009DF8412006D1012161F3C6028DF8412009
:100700000233C5E7022161F3C6028DF841200133AF
:10071000BEE75A786C2A9DF8412001D10421EBE70D
:100720000321F0E705219DF84120ECE707219DF822
:100730004120E8E7BDF8402022F4F04222F0020216
:1007400042F4804242F00202ADF84020DFE76E3B07
:10075000D9B201238B4040F282410B4237D113F0D2
:10076000240F51D1D8075CD503219DF8423061F3A5
:1007700002038DF8423002F07803A3F140014B42AE
:100780004B411AE00120A3F15801C9B200FA01F16E
:1007900011F4624F94D140F6010631421DD111F49B
:1007A000043F3ED09DF8423060F3020302F078022D
:1007B000402A8DF8423034D000239DF84020C2F307
:1007C00040010B4363F341028DF84020FDE6022116
:1007D0009DF8423061F30203E8E702209DF84210E1
:1007E00002F0780260F30201402A8DF8421002BF45
:1007F0009DF8401041F001018DF84010632BDBD1D2
:10080000131E18BF0123D8E703219DF8423012F0D0
:10081000780F61F302038DF8423014BF01230023E7
:10082000CBE79DF8403043F001038DF84030C3E73B
:100830009DF94020002AACBF4FF0FF38DDF844801E
:10084000D5E698077FF5E2AEDDF848A00023CDE9B4
:1008500011339DF842309DF8411003F00703012B3E
:10086000C1F3C30133D1CB1E042B04D8DFE803F05E
:10087000214646212100236801294FEAE372CDE990
:100880000E321CD19DF93830DA17CDE90E3204341E
:100890009DF8403013F0030650D03A46594648467A
:1008A000039B01F026FD0028C0F252810544039FFE
:1008B000F2E554F8043BDA17CDE90E32E8E70229F5
:1008C000E5D11AB243F3C033CDE90E23DFE7022BA3
:1008D00024D1CB1E042B04D8DFE803F01810101825
:1008E000180001294FF0000254F8043B14D00229EB
:1008F000CDE90E32CCD19BB20E93C9E7073424F078
:100900000704F4E80223CDE90E23C1E754F8043BC1
:100910000E9300230F93BBE7DBB2CDE7042B08D186
:10092000073424F00704D4E900230834CDE90E236A
:10093000AEE7032BACD154F8043BDDE79DF8430050
:100940007828B4D862281CD825283FF4ADAD5828A3
:10095000ADD1DDE90E010DF13603009310AA08AB0D
:1009600001F081FCBAF1000F074680F29980002F58
:100970009DD00DF13603D81B002E00F0C080013051
:10098000BDE06338152892D801A252F820F000BFCC
:10099000650A0008770A0008AF080008AF080008D9
:1009A000AF080008AF080008770A0008AF08000881
:1009B000AF080008AF080008AF080008030B0008E4
:1009C0009B0A0008C10A0008AF080008AF08000829
:1009D000E9090008AF0800089B0A0008AF080008F2
:1009E000AF0800089B0A0008BAF1000F0E9F35DB24
:1009F0005146384601F0C3FC07EB000A002F3FF4D4
:100A000056AF00269DF8423013F01002059200F018
:100A1000928002305B06119A48BF129B104448BF77
:100A2000C018B8F1000F049240F39F809DF8402059
:100A3000A8EB0008C2F380035007069300F19580ED
:100A4000510640F188803EB159463046C8470028DB
:100A50007EDB069B01351E4630227DE0384601F0E4
:100A600073FCC9E70E9B002601208DF8203008AFEB
:100A70000DF1210AC6E719075ABFC3F300135E013F
:100A80002B26DDE90E23002BBFF663AF524263EB4A
:100A900043032D26CDE90E235BE7002659E7002608
:100AA0009DF840200DF13603DB1B6FF386129A454B
:100AB0008DF840207FF65BAFAAEB0303119356E756
:100AC0000E9890B30DF136030093002108AB10AAE5
:100AD00001F0C9FBBDF84230BAF1000F03F0EF039B
:100AE00043F4F04343F010030746ADF84230D6DA42
:100AF00000283FF4DCAE00260DF13603181A9A46A2
:100B000080E70E9B07293FF6D2AEDFE801F00C0428
:100B1000060C08080C0C1D70C9E61D80C7E6EA1714
:100B2000C3E90052C3E61D60C1E62F4F064607F138
:100B3000050A052066E71A0748BF01306AE7104634
:100B4000079306925946C847DDE90623002804DAD0
:100B500015B0BDE8F08F202243461946002903F165
:100B6000FF33ECDC454498466D1A2EB159463046A9
:100B7000C8470028ECDB01359DF84230DA0601D485
:100B80001B0705D559463020C8470028E0DB013552
:100B9000059B33B159469DF84300C8470028D7DB71
:100BA0000135049E2E4405E059463020C8470028F0
:100BB000CEDB0135731B002BF6DC53463A46594613
:100BC000484601F096FB0028C2DB0544A844A8EB88
:100BD0000503002B7FF76BAE59462020C84700283D
:100BE000B6DB0135F3E700BF512C0008024B034A86
:100BF00000201A60704700BF2000002000127A0019
:100C0000014910220A60704710ED00E072B64040C2
:100C100080F31188BFF36F8FBFF34F8F30BF62B681
:100C2000BFF36F8F704700BF40B2002807DB01237E
:100C30004109034A00F01F00834042F82130704709
:100C400000E100E040B2002801F10101ACBF00F179
:100C50006040064B4FEA0111C9B2ABBF00F56140DD
:100C600000F00F0080F800131954704714ED00E0F5
:100C700030BFFFF7FDBF00BF08B5094B094A23F09D
:100C8000604323F07F039360BFF34F8FBFF36F8FF9
:100C900000F06CFD01F058F900F0CAF900F0B4FD65
:100CA0000000000800ED00E0094A0A49936809685D
:100CB0009866D96608494B6843F080534B6000231F
:100CC00083F31188BFF36F8F9368D86E704700BFAE
:100CD0003C020020242C000800ED00E00F498A6847
:100CE0004FF030001044EFF3098C80E8F01F102023
:100CF00080F31288BFF36F8F094F4FF000664A6987
:100D00008A603E60906E0023936680F3118802F142
:100D1000300090E8F01F8CF3098870473C020020F7
:100D200004ED00E01EF0040F0CBFEFF30880EFF3BA
:100D30000980816911F8021C0229FFD001B501F078
:100D4000F4FA01BD42F8203C009B0B4942F81C3CE0
:100D5000019B21F0010142F8183C029B42F8081C5B
:100D600042F8143C4FF0807342F8043C0023203AD0
:100D700002658366704700BF53220008074B9860E6
:100D8000104681F30988002163B681F31188BFF30F
:100D90006F8F0022002301F05CFA00BF3C020020AC
:100DA00001B5EFF30580A0F110004FEAC00004493F
:100DB000014409C99847BDE80140024908470000BD
:100DC000AC290008C90D0008044B9968586988428D
:100DD00003D003494FF080520A6070473C02002064
:100DE00004ED00E0134B9A6A12F0007F9A6A14BF78
:100DF0001E201D2012F0807F9A6A18BF1F2012F457
:100E0000002F9A6A18BF212012F4802F9A6A18BF07
:100E1000222012F4003F9A6A18BF232012F4803F68
:100E20009A6A18BF24206FEA02426FEA12429A625D
:100E3000704700BF00ED00E010B5164B9A6A9C6A3F
:100E400012F4805F14BF1722162214F4006F9C6AFC
:100E500018BF1822A40509D59A6B9A6A120404D502
:100E600018B19A6A22F400429A621922094B986AD0
:100E700010F4806F986A18BF1A2210F4807F986A65
:100E800040F47F4098624FF000030CBF10461B20D7
:100E90000B7010BD00ED00E010B5154B0246986ACE
:100EA0009C6A10F0100F14BF1120102014F0080FCE
:100EB0009C6A18BF1220A40709D5586B986A0006CF
:100EC00004D51AB19A6A22F080029A621320084B64
:100ED0009A6A12F0010F9A6A18BF1420D20658BFFE
:100EE0009A6A9A6A42F0FF029A6200230B7010BD60
:100EF00000ED00E070B5444B06465B6800258AB003
:100F0000C3F3080385F31188BFF36F8F02F07F40AE
:100F1000B0F17F4F11D102F00C0008280DD010075E
:100F20004CBF0E4601250022033B8DF80720032B02
:100F300005D8DFE803F01E5C60592E46F3E7002475
:100F40009DF807309BB92022314602A801F003FA30
:100F5000099B002D53D0C3F3080222B96FEA532333
:100F60006FEA43230993204602A901F0DCF90AB095
:100F700070BD254BDA6A9107E1D4DA6A002ADEDB1C
:100F8000DA6A5200DBD55A69B16942F480725A615B
:100F9000BFF34F8FBFF36F8F5A6931F8021C22F4F1
:100FA00080725A61BFF34F8FBFF36F8F4DF602729D
:100FB000914209D09A6AD2B242B101200DF10701E3
:100FC000FFF76AFF0446BBE73468B9E79A6A12F490
:100FD0007F4F05D001200DF10701FFF72DFFF1E74D
:100FE0009B6AB3F5803FAAD3FFF7FCFEEAE7002037
:100FF0000DF10701E4E700200DF10701EDE723F40F
:10100000FF7323F00103ADE700ED00E0024A5369EE
:1010100043F010035361704700ED00E0EFF30880E8
:10102000EFF3098101B57246FFF764FF01BD00BF10
:10103000002310210348C21801333C2B82F800130F
:10104000F9D1704700E100E0102080F311880848D2
:101050004FF40061401880F30988EFF314800221F7
:10106000084380F31488BFF36F8FFFF705FE00007D
:1010700070020020084B9B6883420BD1EFF305837D
:1010800043B1064B5A6842F080525A605A6A22F4C1
:1010900000425A6200F0F8BE3C02002000ED00E081
:1010A0002DE9F041054600244FF001080D4E0E4F8A
:1010B0002B78E2B298181F280DDC726908FA00F349
:1010C00033EA020207D1736157F830301BB107EBE6
:1010D000C002516898476A780134E3B29A42E7D275
:1010E000BDE8F0810004014060010020044B184479
:1010F00000230133994200F8012BFADC704700BF4E
:101100002C00002010B4064B024618560123054956
:1011100093400C6823430B6010BCFFF785BD00BFF4
:101120002C000020000401401F2806DC0122034996
:1011300082400B6823EA02030B6070470004014001
:1011400003292AD8DFE801F0020E141F0122134BF5
:101150008240996821EA02019960D96821EA020275
:10116000DA60704701220D4B824099681143F3E722
:1011700001220A4B8240D9681143D960996821EA5B
:1011800002029A607047012303FA00F0034B9A6849
:1011900002439A60DA681043D86070470004014047
:1011A00030B50A4B53F830408C4204D103EBC005F4
:1011B0006D68954205D034B943F8301003EBC00395
:1011C0005A60002030BD6FF00F00FBE76001002087
:1011D0000022034B43F8302003EBC0035A607047F2
:1011E000600100200E4B18680B68052B0BD883B1EB
:1011F000023B032B03D8DFE803F0110202030020B7
:10120000106000207047182BFAD01C2B04D0142B30
:10121000F6D06FF0850070474008F1E70148EFE72E
:101220002000002000127A0070B501F060F900F093
:10123000FFF9324C324A6368324EC3F30313D35C76
:1012400020FA03F5B54202D82F4800F02BFA2368A4
:1012500023F480232360236843F4803323602368CE
:101260009803FCD5636803F00C03082B15D12368A1
:10127000990706D4236843F00103236023689A0783
:10128000FCD5636823F003036360636813F00C0FFD
:10129000FBD1636823F0F0036360236823F080735D
:1012A000236000F035F8236843F0807323602368DF
:1012B0009B01FCD5636823F0F0036360636823F04F
:1012C000030343F002036360636803F00C03082B1D
:1012D000FAD1B54202D90C4800F0E4F90B4B0A4AA6
:1012E00000201A60636823F4E06343F48063636062
:1012F000636823F46053636070BD00BF0010024058
:10130000D62C0008FFA14A0400A24A0420000020B5
:10131000054A536823F47C1343F4E813536053687D
:1013200023F48003536070470010024038B503690E
:1013300004465860084D284601F00BFA40B1616838
:10134000AB6828461B680C31984700EAE07038BD4E
:101350006FF01200FBE700BF20290008F8B5174620
:10136000B7F5001F0C461D464668026923D10F23BE
:1013700001F0030204329200934043EA9103DAB28F
:101380002C49023251F82220190C02EA134391FA37
:10139000A1F2B2FA82F2D340B2689A4209D1204651
:1013A000FFF7C2FE2046FFF713FF00212046FFF79C
:1013B000C7FE0020F8BDB7F5800F35D020461E4986
:1013C000FFF7EEFE98BB0F2204F0030304339B00EB
:1013D0009A4042EA9402D3B29B0003F1804303F5A2
:1013E0008033B1689E68100C26EA124690FAA0F28B
:1013F000B2FA82F201FA02F23243B5F1806F9A60DA
:101400000ED0B5F1C06F0DD005F17E435942594160
:1014100049002046FFF794FE2046FFF773FEC8E719
:101420000121F6E70321F4E76FF08500C2E76FF0D2
:101430000F00BFE700000140072600084FF0E0233F
:1014400010B59A691969986911F4803F084B0949E8
:1014500001D1824206D21A680C6822441A604FF009
:10146000E02212691B680A681344181A10BD00BFF5
:1014700030020020340200201022094B002083F8A3
:10148000232041F61F42074B1A60074B18604FF0AC
:10149000E0235A6198611A6942F007021A617047A5
:1014A00000ED00E0340200203002002010B5FFF70C
:1014B000C5FF1049104B0868D3E90042001942F1FA
:1014C0000002C3E9000200230B604FF4E1530B4A12
:1014D000D2E90041001BB0FBF3F043431B1941F17B
:1014E0000001C2E9003100F005FEBDE81040FFF741
:1014F0006BBC00BF300200205800002050000020CC
:101500002DE9F041364F00295ED0421C0AD14FF040
:10151000E022136923F0010313614FF07F433B6026
:10152000BDE8F0813E68012854DD40F619184045B9
:1015300001DC00F1FF384FF01003EFF3118583F366
:101540001288BFF36F8FFFF779FF4FF0E023254933
:101550009A69D1E9004300194FF0000443F10003F8
:10156000C1E90003204B1C60204B1B68C41A34D413
:101570004FF4E15C0CFB084404F5E0541F34B4FB69
:10158000FCF4181A0CFB0400B0F5806F25D9184B39
:10159000984228BF18464FF0E023386001389C6914
:1015A00058610020A2429861A2EB040338BF9B1946
:1015B000D1E900021B1842F10002C1E9003285F3B3
:1015C0001188BFF36F8FABE7431C3E68ABD140F689
:1015D0001910AEE74FF00008ADE74FF48060DAE78E
:1015E000340200205800002030020020500000206B
:1015F00020DFFF0038B54FF01003EFF3118583F3C0
:101600001288BFF36F8F084B1C68084B1B68E41AE5
:10161000FFF714FF85F31188BFF36F8F4FF4E15389
:101620002044B0FBF3F038BD5800002050000020EB
:1016300030B5184B87B002AC03F11005224618688C
:101640005968083303C2AB421446F7D140F2012374
:101650001149ADF804304B6803F00C02082A17D189
:10166000C3F3834218326A44DB0312F8100C0CD522
:101670004B680A4AC3F34043504318336B4413F892
:10168000143CB0FBF3F007B030BD054B5843FAE70C
:101690000248F8E7E62C00080010024000127A0029
:1016A00000093D00D8B10F4B984216D80E4B984216
:1016B00094BF002001200D4A136823F00703034361
:1016C0001360136803F0070398421CBF136803F00C
:1016D0000703C01A18BF012070470220EBE7012062
:1016E000704700BF006CDC0200366E010020024033
:1016F000104B70B553F82040013053F82060A642DB
:1017000000D870BDD4E9003595B153B1284698474B
:1017100038B10028B8BF4042FF28A8BFFF20EB68BF
:101720001870EA68537843F0010353700834E6E711
:101730009847FBE7282C0008012208B5094B032035
:101740001A70FFF7D5FF00F059FD0420FFF7D0FF16
:1017500000F0EAF8FEF756FE034A137B23F001037C
:10176000137308BD6C020020D000002008B50348A8
:10177000034A0021121A01F01EF808BD5000002093
:1017800070020020702370B5194E012203FB006621
:10179000002386B0CDE904230F220193CDE9023264
:1017A00014230446134D144903FB005501EB00219B
:1017B000124B4FF480723046009500F08BF8737B2B
:1017C0002C7423F0040373730D4B013403EBC42317
:1017D0006B60EE60BFF35B8F0A4B53E8001F013173
:1017E00043E80012002AF8D1BFF35B8F06B070BD4A
:1017F000600000203C020020700A0020BF27000883
:10180000700200203802002080B50020A2B0FFF74F
:101810006FFF294B83F30888284C00256369284E05
:1018200043F400736361F02384F82230E577257672
:101830006576A57684F82050636A224F43F4E0234E
:101840006362FFF7E3FBFFF7DBF94FF0FF33A362BF
:10185000E36240F20113ADF8243006ABB3601F958C
:1018600000F076FF0120FFF743FF0220164CFFF740
:101870003FFF00F061FA154B746105930123144991
:101880004FF48062CDE9035320463B46CDE9015534
:10189000009500F01FF80646627B204622F0040205
:1018A000627300F0AAFF2846FFF76CFF3A46314604
:1018B0002046FFF763FA00BF700A002000ED00E049
:1018C0003C02002039170008D0000020F72C000847
:1018D000700B00207FB50C9E00F15805067304269E
:1018E000C0E9165500250446467307320B9E22F0C8
:1018F000070286738E180A9AC0E906558560C5737B
:101900000292099A0192089A00923246FFF71AFA57
:10191000044B65659B6803B15B6E3046636604B03B
:1019200070BD00BF3C020020F0B5224C224D87B0B4
:101930002646AE4204F12C040BD300F0CDF90A2662
:101940001C4C1E4FAC4220D307B0BDE8F04000F065
:10195000D7B954F8043C059354F80C3C049354F85C
:10196000103C039354F8143C029354F8183C019330
:1019700054F81C3C009354E9092354E90B01FFF788
:10198000A9FF54F82C3C5E65D2E7626A531C09D06B
:1019900022EAE27282FB062352EA0301206803D1A5
:1019A00000F04AF92C34CDE73946183000F02CFB12
:1019B000F8E700BF8C2B00088C2B00085F2800087C
:1019C000C3897F2B12D80A4B1B6863B1094B90F96E
:1019D0000E201B689A4209DB437BDB0606D1064BCF
:1019E000C31A18BF012303F0010070470023FAE770
:1019F0006402002060020020600000200122044BED
:101A0000C01A044BC0105843034B1A54704700BF10
:101A100040010020ABAAAAAA6D02002070B50E4BAF
:101A20000E4C1E7C182303FB06440546204600F09E
:101A300030FF00220A4B28469A55FFF7C1FF48B1F4
:101A4000084B2046BDE870401A680749013AD31791
:101A500000F0DABA70BD00BF3C0200204001002057
:101A60006D02002064020020FD19000838B50D4DFC
:101A70002B4653F8184F9C4200D004B9EC68AB6871
:101A800038B95A7BD20604D1A26912B9DA897F2A01
:101A900005D89C4202D02046FFF7C0FF23466B6169
:101AA00038BD00BF3C02002070B590F90D20014602
:101AB000002A437B04DA03F07F03437300F08BFEBC
:101AC000154A4B7B104663F07F034B7350F8183F69
:101AD000D469834208BF002323B9C1E9000421600F
:101AE000D1610CE091F90E5093F90E60B5420ED021
:101AF000AE420CDD5868C1E9003001605960906861
:101B0000BDE87040431A58425841FFF7AFBF9C42AE
:101B1000E3D01B68E0E700BF3C02002070B490F9FE
:101B20000D30427B002B29DBD30627D183692BBBE9
:101B3000134962F07F0242730A4652F8184F9442EA
:101B400018BF2346CC6923B9C0E900242060C861CE
:101B50000CE090F90E5093F90E60B5420AD0AE42F7
:101B600008DD5A68C0E9003210605860002070BC7F
:101B7000FFF77CBFA342E7D01B68E4E770BC704767
:101B80003C02002008B590F90D200146002A437B55
:101B900004DA03F07F03437300F01DFE044B9868E2
:101BA000431A58425841BDE80840FFF75FBF00BFE5
:101BB0003C02002038B54FF01003EFF3118583F39A
:101BC0001288BFF36F8F104B104A9C681068A042B8
:101BD00006D1FFF723FF85F31188BFF36F8F38BD60
:101BE00000211B7C11600A4AD35C002BF3D02046F5
:101BF000FFF7E6FE0028EED0637BDB0602D120462D
:101C0000FFF752FF2046E4E73C0200205C02002080
:101C10006D02002049B9EFF3058030B9054B5A69D0
:101C20009B689A4201D0FFF73FB881F31188BFF358
:101C30006F8F70473C02002010B54FF01002EFF399
:101C4000118482F31288BFF36F8F427B510704D453
:101C500084F31188BFF36F8F10BD22F0040242732A
:101C6000FFF75CFF2146BDE810400148FFF7D2BFF7
:101C70006E02002070B50446183000F00AFE4FF0E6
:101C80001003EFF3118683F31288BFF36F8F94F97B
:101C90000D20637B002A05DA03F07F03204663737F
:101CA00000F099FD0B4D637BA86843F0100363734C
:101CB000031B58425841FFF7D9FE86F31188BFF342
:101CC0006F8FAB68A34203D1BDE8704000F0D7BD71
:101CD00070BD00BF3C0200204FF01003EFF31181F4
:101CE00083F31288BFF36F8F044B9A68D37B013B59
:101CF000D37381F31188BFF36F8F70473C020020CC
:101D000010B54FF01003EFF3118483F31288BFF383
:101D10006F8F084B00209A68D37B0133D373FFF792
:101D2000A5FE84F31188BFF36F8FBDE8104000F06B
:101D3000A6BD00BF3C020020024B03F11802C3E91C
:101D4000062270473C020020F8B54FF01003EFF375
:101D5000118583F31288BFF36F8F19498868437B1D
:101D600003F07F03437300F036FD08468B685A7B0F
:101D700062F07F025A7350F8182FCC69824208BF74
:101D8000002222B9C3E900042360CB610CE093F97F
:101D90000E6092F90E70BE420ED0B7420CDD516853
:101DA000C3E900210B6053600120FFF75FFE284666
:101DB000BDE8F840FEF778BFA242E3D01268E0E742
:101DC0003C02002050EA01032DE9F04105460E4691
:101DD00003D1FFF7B9FF00202CE0831C71F1FF3322
:101DE0002ADB00F06CFD2C184FF01003EFF3118884
:101DF00083F31288BFF36F8F114F124BB8681860CE
:101E0000FFF7C0FEB86810492A463346183000F084
:101E1000FBF8BA684046537B43F010035373FEF758
:101E200043FF00F04CFD201A63EB0303012873F11C
:101E30000003D0DBBDE8F0816FF00104241AD3E782
:101E40003C0200205C0200205F280008B1F1FF3F47
:101E500008BFB0F1FF3F08B506D1074B9868FFF700
:101E600009FF4FF0FF3008BDFFF7ACFF0A22002347
:101E7000C117FEF75DF9F6E73C020020014B9868B8
:101E8000704700BF3C0200202DE9F04104464FF0AE
:101E90001003EFF3118683F31288BFF36F8F037B78
:101EA000D9070BD586F31188BFF36F8F404080F3BD
:101EB00011884FF0040002DFBDE8F081437B1A0770
:101EC00004D586F31188BFF36F8FF5E723F0200266
:101ED00042F00801D20920D14173A36813B1204612
:101EE00000F081FC04F1180000F0D3FC4FF0000872
:101EF00004F15807A56DBD4200D0B5B90120FFF728
:101F0000B5FD104B9B68A342DBD1EFF30583002B9B
:101F1000D7D13046FEF7C8FED3E703F05F0343F0A6
:101F20000803437300F057FCD7E7284600F05BFC3A
:101F300005F1180000F0ADFC2846C5F86C80FFF7ED
:101F4000EDFDD7E73C02002008B50648064A0749E0
:101F5000121A00F032FCBDE80840054A054906485F
:101F600000F02BBC000000204A000020242D0008B7
:101F700000000000242D000800000020034B1B6817
:101F80000BB9FFF737BB0020704700BF6802002085
:101F900010B50E4B1C689C4204D1FFF7EFFF6FF0A9
:101FA000004010BDFFF7EAFF002CF8D0D4E904325E
:101FB0001B1A62EBE072B3F1004F72F10001EEDA2E
:101FC000002AACBF18460020EBE700BF2400002029
:101FD00030B570B10B4B5B6898420AD0036843B1CF
:101FE000D3E90421D0E90445121941EB0501C3E905
:101FF0000421D0E9003213605A600023C0E90033A5
:1020000030BD00BF24000020B3F1FF3F08BFB2F194
:10201000FF3FF8B504461D4616465CD081604FF080
:102020001003EFF3118783F31288BFF36F8F013230
:1020300075F1FF3324DA6FF001032C49D1E9002058
:102040009B1A4FF0FF3262EB00009E1B60EB050015
:10205000012E70F1000301DA01260020C4E90460BA
:10206000234ED6F800C07568B44508BF4FF0000C89
:10207000BCF1000F0DD1C4E900652C6074601CE058
:10208000FFF77CFF013645F10005361845EBE0709F
:10209000E4E7DCE90420D4E90431934271EB000E5B
:1020A0001ADAD21ADCF8043060EB0100CCE9042023
:1020B000C4E900C31C60CCF804403368B34206D0C6
:1020C0009C4204D1FFF764FF0021FFF719FA87F360
:1020D0001188BFF36F8FF8BD9B1A61EB0001AC450F
:1020E000C4E90431C7D0DCF800C0C1E758010020C2
:1020F000240000202DE9F84F4FF01003EFF3118C6E
:1021000083F31288BFF36F8FDFF8B0A0DFF8B090D1
:102110000024C9F80000DAF800000025504508BF87
:102120000020284FE046D7E90021D9F8003080B3DD
:10213000D0E9046C4FEAE37EB3427EEB0C0B05DA88
:10214000F61A6CEB0E04C0E9046422E0B21841EB0D
:10215000E671C0E90445C7E90021FFF739FF88F3BC
:102160001188BFF36F8F836898474FF01003EFF328
:10217000118883F31288BFF36F8FD9F80030DAF833
:1021800000009B1B5045C446C9F80030CAD1D7E9AE
:10219000002100249A1841EBE373C7E90023C9F832
:1021A0000040FFF7F5FE2146FFF7AAF988F31188F2
:1021B000BFF36F8FBDE8F84FFFF7FCBC2400002091
:1021C000680200205801002010B54FF01003EFF313
:1021D000118483F31288BFF36F8FFFF7CFFE03469E
:1021E000054AD2E90001181841EBE37184F3118824
:1021F000BFF36F8F10BD00BF58010020014800F0F1
:102200001BB800BFFF2C00087047012303FA01F13F
:1022100003691B68194218BF82F0010212B183687A
:10222000DB68184783681B69FBE70A2180FB010113
:10223000FFF70CBE002070470FB407B504A951F892
:10224000040B0191FEF712F903B05DF804EB04B042
:102250007047044608B5084611461A46A047FFF7DE
:102260000DFEFEF707FF2DE9F84F9A46D37880461A
:102270006F2B0F461546A3F1410B29D024D8582BBC
:102280000CBF10260A26DDF828903246002340466F
:102290003946FDF74DFF092AD4B21ED83034B04577
:1022A000E4B277F1000709F8014D01D3D14511D807
:1022B0002B789B0605D5082E15D1AB7843F0080383
:1022C000AB704846BDE8F88F03F0F703702BD7E7F3
:1022D0000826D8E780460F46D7E7BBF1190F94BF11
:1022E00037345734DBE7102EEBD1AB7843F01003D3
:1022F000E6E72DE9F0410746884615461E46144696
:10230000B44205D30EB1601B08E02378002BFAD04D
:10231000414614F8010BB8470028F1DABDE8F08116
:1023200070470020704700F02BBA0146006800F0AB
:1023300027BA00210120FFF7F6BF08B5FEF798FC89
:10234000BDE80840FEF740BD034600201A5C02B914
:1023500070470130FAE710B5431E0A44914200D19C
:1023600010BD11F8014B03F8014FF7E70346C9B25E
:102370000244934200D1704703F8011BF9E703467A
:1023800000201A5C0AB1884200D170470130F8E79A
:1023900008B5062201210020FEF7A8FE0022062033
:1023A0001146FEF74FFC012107220846FEF79EFE6C
:1023B000002207201146FEF745FC082201210220D9
:1023C000FEF794FE002208201146FEF73BFC09228E
:1023D00001210320FEF78AFE002209201146FEF7A4
:1023E00031FC0A2201210420FEF780FE00220A208F
:1023F0001146FEF727FC052117220846FEF776FE58
:10240000002217201146FEF71DFC282206210A2073
:10241000FEF76CFE002228201146FEF713FC002078
:1024200008BD0B68A3F11402082A9FBF03F1804383
:1024300003F504331A6849689BBF00200A436FF014
:1024400085001A6070470B68A3F11402082A9FBF29
:1024500003F1804303F504331A6849689BBF0020E9
:102460008A436FF085001A6070470868A0F1140372
:10247000082B0AD800F1804000F5043002684B6850
:10248000934314BF012002207047022803D005287F
:102490000CBF02200120704710B50B68022B01D041
:1024A000052B21D14A68FF2A1CD0D3B203F1804307
:1024B00003F504331868C2F34234C2F3042204FA69
:1024C00002F220EA02021A604968CBB203F18043AB
:1024D00003F504331868C1F30242C1F304218A40B2
:1024E00002431A60002010BD6FF08500FBE77047C3
:1024F000436800205B689B680B60704743685B68BB
:10250000D86842400A404240DA6000207047436881
:1025100000205B6819617047436800205B6859615F
:102520007047436800205A68D3684B40D3607047B7
:1025300010B503699868F8B1884219D1DC68086859
:10254000A142986000D1D860002008602AB19A6842
:102550000A60DA68996002B9D960002010E081420F
:1025600006D108682060D8688142EDD1DC60EBE7D5
:10257000044600680028F2D1002AE8D16FF0150067
:1025800010BD91FAA1F3B3FA83F370B50D0E0F26C7
:1025900091FAA1F1B1FA81F144599B0006FA03F3D3
:1025A000890024EA03048A402243425170BD91FA13
:1025B000A1F3B3FA83F370B50D0E032691FAA1F1DE
:1025C000B1FA81F144599B0006FA03F3890024EA29
:1025D00003048A402243425170BD91FAA1F3B3FA39
:1025E00083F370B50D0E042691FAA1F1B1FA81F1D1
:1025F00044599B0006FA03F3890024EA03048A4045
:102600002243425170BD70B50B46896821B1012546
:102610005E680C68854001B970BD8A682A4002D0A6
:1026200030464B6898471CB1236821461C46F2E7A8
:102630002346FAE770B501241546072904FA01F28A
:10264000C8BF01F007014FEA0223C5BF8C401C43FD
:1026500042EA030444F08064EA07406822D415F09B
:10266000060204D12146BDE87040FFF78ABF022A66
:1026700001D10422F6E705F4C075802D6FEA142617
:102680004FEA14220BD192FAA2F20123B2FA82F29B
:10269000C168934031400B430822C360E2E7C3683E
:1026A0003340F9E76B0654BF012209222146FFF7A8
:1026B00068FF15F0200218BF0422214605F0180516
:1026C000FFF78BFF082D05D102222146BDE870409F
:1026D000FFF76DBF0DB90122F7E70322F5E71346B7
:1026E0009A0310B518D59C070FD55A072DD521226E
:1026F000DC060CD542F0840213F4002F44681BD092
:10270000012364688B40236111E00122F0E79C06FD
:10271000F2D542F48272EFE713F4803207D0DC0680
:1027200011D413F0200F14BF4FF4827202224068BC
:10273000FFF780FF002010BD5B03F8D5012364681C
:102740008B406361F3E78422F1E76FF08500F2E7E5
:10275000704740B1C368587810F001001EBF187868
:10276000B0FA80F0400970474FF01002EFF3118388
:1027700082F31288BFF36F8FFEE708B5FFF7F4FF0F
:10278000F8B505460E464FF01003EFF3118783F3BB
:102790001288BFF36F8FFFF771FB3146044628465E
:1027A000FFF7EBFF87F31188BFF36F8F2046BDE87B
:1027B000F840FEF75FBCFFF7D9BDFFF7CCBD08B509
:1027C0004FF01002EFF3118382F31288BFF36F8F83
:1027D000FEF71CFAF4E7D0E9003213605A600023D8
:1027E000C0E90033704708B5FFF7F5FF437B23F0DE
:1027F000020343730023836008BD10B54FF010033C
:10280000EFF3118483F31288BFF36F8FFFF786F91C
:1028100084F31188BFF36F8F10BD38B504464FF0B5
:102820001003EFF3118583F31288BFF36F8F437B9F
:1028300013F0280F0BD183680BB1FFF7D4FF637B34
:1028400051B903F0FB0320466373FFF767F985F383
:102850001188BFF36F8F38BD03F0EB03F3E701215D
:102860001838FFF7DABF034620B9EFF305820AB93B
:10287000FEF71ABA83F31188BFF36F8F70474FF0DA
:102880001003EFF3118083F31288BFF36F8FFFF70C
:10289000EABF10B54FF01002EFF3118482F31288F3
:1028A000BFF36F8F03683BB1FFF792FB002084F307
:1028B0001188BFF36F8F10BD6FF01500F7E708B5F3
:0828C000FFF782FC08BD0000D7
:0828C8009CD8FF7F0100000015
:1028D000ED0B000800000000291200082029000864
:1028E00023230008000000002D13000870290008B1
:1028F00091230008342900082D13000898290008A6
:102900002D130008842900082D1300085C290008F5
:102910002D13000848290008791400080000000061
:10292000832C000800000000040000203E0000206E
:1029300000000000652C00080000000000000000FE
:102940003C00002060010020902C00089C2B000817
:10295000002C000840000020E00100209E2C000810
:10296000B02B0008002C000842000020F0010020DD
:10297000AC2C0008C42B0008002C000844000020E8
:1029800000020020BA2C0008D82B0008002C0008F8
:102990004600002010020020C82C0008EC2B000884
:0C29A000002C000848000020200200204D
:1029AC00000000003323000800000000332300085F
:1029BC00000000003323000800000000332300084F
:1029CC00000000003323000800000000332300083F
:1029DC00632C0008A1100008612C0008A11000084D
:1029EC005F2C0008A11000085D2C0008A110000845
:1029FC005B2C0008A1100008000000003323000825
:102A0C0000000000332300080000000033230008FE
:102A1C0000000000332300080000000033230008EE
:102A2C0000000000332300080000000033230008DE
:102A3C0000000000332300080000000033230008CE
:102A4C0000000000332300080000000033230008BE
:102A5C000000000033230008592C0008A1100008C6
:102A6C00000000003323000800000000332300089E
:102A7C00000000003323000800000000332300088E
:102A8C00000000003323000800000000332300087E
:102A9C00000000003323000800000000332300086E
:102AAC00000000003323000800000000332300085E
:102ABC00000000003323000800000000332300084E
:102ACC00000000003323000800000000332300083E
:102ADC00000000003323000800000000332300082E
:102AEC00572C0008A1100008000000003323000838
:102AFC00000000003323000800000000332300080E
:102B0C0000000000332300080000000033230008FD
:102B1C0000000000332300080000000033230008ED
:102B2C0000000000332300080000000033230008DD
:102B3C0000000000332300080000000033230008CD
:102B4C0000000000332300080000000033230008BD
:102B5C0000000000332300080000000033230008AD
:102B6C00000000003323000800000000332300089D
:102B7C00000000003323000800000000332300088D
:102B8C00402C000800000000FC2C00080000000095
:102B9C00FFFF0000001801400400000018000000B6
:102BAC0040000000FFFF0000001401400300000083
:102BBC001800000020000000FFFF00000010014082
:102BCC00020000001800000010000000FFFF0000D1
:102BDC00000C01400100000018000000080000007B
:102BEC00FFFF00000008014000000000180000007A
:102BFC0004000000DF260008F1240008FD24000872
:102C0C000F25000819250008232500085D1300086E
:102C1C003125000800000000F5FFFFFFD028000858
:102C2C00D0280008182900082029000820290008AD
:102C3C002029000863627072696E74665F7061634C
:102C4C006B61676500286E696C29000A060505042E
:102C5C00010301020101010001696E746572727554
:102C6C0070742D636F6E74726F6C6C65724034305F
:102C7C0030313034303000726363403430303231B4
:102C8C00303030006770696F40343030313138305B
:102C9C0030006770696F403430303131343030007F
:102CAC006770696F403430303131303030006770CC
:102CBC00696F403430303130633030006770696F89
:102CCC00403430303130383030000000000000002B
:102CDC0000000102030406070809020304050607A5
:102CEC0008090A0B0C0D0E0F1010006D61696E00B7
:102CFC006F73002A2A2A20426F6F74696E67205AFC
:102D0C006570687972204F53206275696C6420205D
:082D1C002A2A2A0A0000000027
:102D2400352200082324000847240008000000007E
:102D3400E51100086B240008000000009924000835
:102D44000024F4002400002024000020FFFFFFFFE3
:0C2D5400FFFFFFFFFFFFFFFFFFFFFFFF7F
:0E2D6000000000000000000000000000000065
:042D6E0015E015E077
:040000050800104996
:00000001FF
